:100000000C943D030C943D090C9412090C94E708E0
:100010000C94BC080C9491080C9466080C943B0852
:100020000C9410080C946E030C946E030C946E03E5
:100030000C946E030C94880A0C946E030C946E035B
:100040000C946E030C941D170C946E030C946E03A9
:100050000C946E030C946E030C946E030C94C60700
:100060000C946E030C944B0C0C94210C0C946E03AA
:100070000C946E030C946E030C946E030C946E033C
:100080000C946E030C946E030C946E030C946E032C
:100090000C94F70B0C94CD0B0C946E030C94680924
:1000A0000C946E030C946E030C946E030C946E030C
:1000B0000C946E030C946E030C946E030C946E03FC
:1000C0000C946E030C946E030C946E030C94A30BAF
:1000D0000C94790B0C946E030C944F0B0C94250B21
:1000E0000C946E030C948A040C94B7030C94C30311
:1000F0000C942D040C9409030C94EC030C94DE0373
:100100000C9404050C94D6030C94D0030C94BF03F8
:100110000C94BB060C940E030C9471060C94E4032F
:100120000C94D0020C94CC030C94A0030C940B07F9
:100130000C9403030C94A5030C9440010C94F60456
:100140000C94BB030C941A070C94E2040C94E8037F
:100150000C94F6030C94F4020C94D3040C94F20364
:100160000C9420170C94DA030C94A7050C94070642
:100170000C945A050C94C6030200002100240027A9
:10018000002A002D003000330001010000040107A7
:10019000010A0100002200250028002B002E00315A
:1001A00000340002010000050108010B01050505EE
:1001B00005070508080808020202020A0A080804DE
:1001C000040404010101010101010103030303030C
:1001D000030303040707070C0C0C0C0C0C0C0C029B
:1001E00002020206060606060606060B0B0B0B0BA2
:1001F0000B0B0B010210202008081020401020409B
:1002000080020102010804020101020408102040DA
:1002100080804020100804020180040201804020F8
:100220001008040201080402010102040810204021
:1002300080010204081020408000000A0B02090C13
:100240000D0E08070304010000000000000000007C
:10025000000000000000000000000000000000009E
:10026000000000000012111000000000000000005B
:10027000000000000000000000000000000000007E
:10028000CF93DF9300D000D000D01F92CDB7DEB760
:10029000E0917902F0917A028081FF24F39410E0DA
:1002A00000E0882331F00580F681E02D0081118186
:1002B000F12C0E94B20C0E94A80C6C018091750276
:1002C00090917602C816D90608F448C0D0927602FA
:1002D000C0927502FF2009F4CDC0E0917702F09141
:1002E00078028081BB24B3948111B12CE090170374
:1002F000F09018030FB6F8940F92F701858D8F3F99
:1003000009F4158ED7015E968C915E978F3F11F49C
:100310005E961C920F900FBEF701828D811114C062
:100320006091560270915702645F7F4FC7014196FA
:100330000E94000DC8018C199D09BB2011F08FEFA0
:100340009FEF6B2D0E94250EC7010E94830D0E9416
:10035000541081110BC00E94F50E08C00E94421279
:10036000D0927602C09275020E9454100091170339
:10037000109118031A86198680E06801F1E1CF0E0A
:10038000D11C0FB6F8940F92D8015A96FC905A9748
:10039000FF2009F4A4C05C964C915C97442301F1C2
:1003A00050E016968D919C911797840F951F179684
:1003B0009C938E93169714962D913C9115978217C6
:1003C000930738F08D919C91119717969C938E937B
:1003D0001697F80166817781CE0101960E94811AF5
:1003E000FA94D8015A96FC925A9718968C918823C1
:1003F00039F0C80108960E94440D81110E94F50E43
:100400000F900FBED980D7FCB1CF0C811D81F801B0
:1004100082859385892B21F0C80102960E94200DC8
:100420000E94A80C7C018091750290917602E816DA
:10043000F90610F40E944212F0927602E0927502E0
:10044000F9E0FD1508F492CFED2DDD0CFF0BD8017E
:1004500052969C918827E05DFD4F8F4F0C94541964
:10046000D002D002D0020903F4020303D002D0026A
:100470000903F402C016D10608F437CF0E945410C5
:10048000E0917902F0917A020580F681E02DE68014
:10049000F780C70102960E94200DD70152968C91D9
:1004A000529782FF18C01C966D917C91600F711F4E
:1004B0009801A601C7010E94FB0D882329F0A8011D
:1004C00060E0C7010E941B12D7015096ED91FC918C
:1004D000C70119954BCF8E7FF701828BF5CF298508
:1004E0003A85232B19F40F900FBED2CE811109C08B
:1004F00080914F038E8380914D0390914E03988796
:100500008F830F900FBE0E94B20C0FB6F8940F921B
:10051000F801858D8F3F09F4158ED8015E968C9178
:100520005E978F3F11F45E961C920F900FBEBE0136
:10053000675F7F4FCE0106960E94750C811125C022
:10054000C8010E94F50C8823D1F0E984FA846091F7
:10055000560270915702645F7F4FC6010E94C50D1D
:1005600061E0C7010E94250EC8010E94830D0E9410
:100570005410811102C00E94F50E81E002CFC80123
:100580000E94830D0E945410F8CFC8010E94830D71
:100590000E945410C8010E94F50C882371F378CE94
:1005A0009160F801928BCA80DB80648575856C0D43
:1005B0007D1D9601A701C8010E94FB0D882309F447
:1005C000D5CED8015096ED91FC91C8011995F8014E
:1005D000828982FFCBCE448555854C0D5D1D60E040
:1005E000C8010E941B12C2CE9160F801928B6A81F1
:1005F0007B81758764876E0D7F1D9701A701C801F8
:100600000E94FB0DB3CE91FD04C0C8010E942715C6
:10061000ADCE9E7FD80152969C93A8CE8091710258
:10062000882309F10FB6F8940F92E0912B03F09113
:100630002C03C681D781CE0102960E94200D8091A5
:100640004C03815080934C038091710281508093C0
:1006500071020F900FBE8F89988D0E942715CE01D1
:100660000E942715DBCF80915003823010F00E944A
:10067000F50E0E94C705D2CF201711241FBECFEF61
:10068000D1E2DEBFCDBF00E00CBF12E0A0E0B2E0DF
:10069000E6E2F5E300E00BBF02C007900D92A6353D
:1006A000B107D9F726E0A6E5B2E001C01D92AF354B
:1006B000B207E1F713E0CDE3D3E000E006C02197F5
:1006C0000109802FFE010E945419CC33D10780E02C
:1006D0000807A9F70E9411180C94911A0C940000B5
:1006E000282F30E0F901E75CFD4F9491F901ED50BE
:1006F000FE4F449123553E4FF9012491222309F4E2
:1007000035C0992311F191509231F8F4E92FF0E0BE
:100710008827E257FC4F8F4F0C945419BF03C30333
:10072000A003B703BB03A503C603CC03D003D603C2
:10073000DA03DE03E403E803A503EC03F203F603A4
:10074000809180008F7780938000E22FF0E0EE0FA1
:10075000FF1FED56FE4FA591B4918FB7F894EC9121
:10076000611148C040954E234C938FBF08958091EE
:1007700080008F7DE8CF80918000877FE4CF84B5B3
:100780008F7784BDE2CF84B58F7DFBCF8091B000A1
:100790008F778093B000D9CF8091B0008F7DF9CF53
:1007A000809190008F7780939000CFCF80919000C0
:1007B0008F7DF9CF80919000877FF5CF8091A00049
:1007C0008F778093A000C1CF8091A0008F7DF9CF5B
:1007D0008091A000877FF5CF809120018F77809353
:1007E0002001B3CF809120018F7DF9CF809120012E
:1007F000877FF5CF4E2BB8CFCF93DF9390E0FC01EE
:10080000ED50FE4F249183559E4FFC018491882327
:10081000D1F090E0880F991FFC01E758FE4FA59199
:10082000B491FC01ED56FE4FC591D49161110EC0FB
:100830009FB7F8948C91E22FE0958E238C932881BA
:10084000E223E8839FBFDF91CF9108958FB7F8949B
:10085000EC91E22BEC938FBFF6CF089508958FEFC4
:100860009FEF08958FEF9FEF08958091040390E02C
:10087000919581959109089585ED8093BC008091B3
:10088000BC0084FDFCCF1092DE0208952091BA02D4
:10089000260F3327331F21323105E4F42091DE0285
:1008A0002430D1F4FC0190E080E0861760F4A09140
:1008B000BA022191AC0146565D4FA40FB52FB11D70
:1008C0002C930196F2CF8091BA02680F6093BA021E
:1008D00080E0089581E0089582E00895CF93DF934A
:1008E000CB01EA01642F0E944604CE01DF91CF9133
:1008F0000895CF93DF931F92CDB7DEB7698361E090
:10090000CE0101960E94460481E090E00F90DF91B5
:10091000CF910895AF92BF92CF92DF92EF92FF9264
:100920000F931F93CF93DF936C017B018B01040F17
:10093000151FEB015E01AE18BF08C017D10759F0B3
:100940006991D601ED91FC910190F081E02DC601F5
:100950001995892B79F7C501DF91CF911F910F91DF
:10096000FF90EF90DF90CF90BF90AF90089590E010
:1009700080E00895FC01A089B1898C91A689B7898E
:1009800082FD0FC09C91818D8F5F8F73228D8217A6
:1009900049F0A18DAE0FBF2FB11D5D969C93818F45
:1009A00008958C910895FC01538D448D252F30E0DE
:1009B000842F90E0821B930B541710F0CF9608956C
:1009C00001970895FC01918D828D981761F0A28D99
:1009D000AE0FBF2FB11D5D968C91928D9F5F9F735F
:1009E000928F90E008958FEF9FEF0895FC01918D15
:1009F000828D981731F0828DE80FF11D858D90E082
:100A000008958FEF9FEF0895FC01918D228D892F1E
:100A100090E0805C9F4F821B91098F739927089506
:100A200087EE93E00E94040521E0892B09F420E081
:100A3000822F089584E894E00E94040521E0892B28
:100A400009F420E0822F089581E295E00E940405D8
:100A500021E0892B09F420E0822F08958EEB95E0A8
:100A60000E94040521E0892B09F420E0822F0895DB
:100A7000FC01A48DA80FB92FB11DA35ABF4F2C9113
:100A8000848D90E001968F739927848FA689B7890A
:100A90002C93A089B1898C91837080648C93938D01
:100AA000848D981306C00288F389E02D80818F7DA4
:100AB00080830895EF92FF920F931F93CF93DF935C
:100AC000EC0181E0888F9B8D8C8D98131AC0E8898A
:100AD000F989808185FF15C09FB7F894EE89FF8959
:100AE0006083E889F98980818370806480839FBFF7
:100AF00081E090E0DF91CF911F910F91FF90EF90F7
:100B00000895F62E0B8D10E00F5F1F4F0F73112706
:100B1000E02E8C8D8E110CC00FB607FCFACFE88941
:100B2000F989808185FFF5CFCE010E943805F1CF8C
:100B3000EB8DEC0FFD2FF11DE35AFF4FF0829FB7B5
:100B4000F8940B8FEA89FB8980818062CFCFCF93A5
:100B5000DF93EC01888D8823B9F0AA89BB89E889E5
:100B6000F9898C9185FD03C0808186FD0DC00FB68B
:100B700007FCF7CF8C9185FFF2CF808185FFEDCF09
:100B8000CE010E943805E9CFDF91CF91089580E032
:100B900090E0892B29F00E942E0581110E9400000F
:100BA00080E090E0892B29F00E94240581110E94A9
:100BB000000080E090E0892B29F00E941A05811145
:100BC0000E94000080E090E0892B29F00E9410052F
:100BD00081110C9400000895E0911B03F0911C0317
:100BE0008081811107C08FEF9FEF909397028093D0
:100BF00096020895E0911B03F0911C030580F68195
:100C0000E02D0680F781E02D82819381EECF0E9456
:100C1000A80C81E090E020910B0330910C03232B72
:100C200011F090E080E090930C0380930B03089503
:100C30008F929F92AF92BF92EF92FF920F931F936A
:100C4000CF93DF93CDB7DEB7A1970FB6F894DEBF91
:100C50000FBECDBF7C01FA01CB0119A2223008F4EE
:100C60002AE08E010F5D1F4F822E912CB12CA12CFA
:100C7000BF01A50194010E943219F901CA016A302D
:100C800074F5605DD8016E938D01232B242B252BE9
:100C900079F790E080E0109789F0FD010190002045
:100CA000E9F73197AF014A1B5B0BD701ED91FC913E
:100CB0000280F381E02DB801C7011995A1960FB606
:100CC000F894DEBF0FBECDBFDF91CF911F910F9182
:100CD000FF90EF90BF90AF909F908F900895695CC8
:100CE000D1CF8F929F92AF92BF92CF92DF92EF922D
:100CF000FF920F931F93CF93DF937C01EB016C0165
:100D000082E0C80ED11C4701E5E08E0E911C10E078
:100D100000E0F60141916F0150E070E060E02AE0F0
:100D2000CE010E9418065C01E881F9810190F081F2
:100D3000E02D6EE2CE0119958A0D9B1D080F191F3B
:100D4000C814D90431F7F701458150E070E060E044
:100D50002AE0CE010E941806800F911FDF91CF91EB
:100D60001F910F91FF90EF90DF90CF90BF90AF90C9
:100D70009F908F900895EF92FF920F931F93CF93C0
:100D8000DF93C0910503D09106038A859B858D5121
:100D9000934051F58C899D8923E08F32920721F190
:100DA000892B11F580911603811125C0EE88E09101
:100DB0005602F0915702F6888E010E5F1F4FC80150
:100DC0000E94200D8E899091AA03981710F48093A9
:100DD000AA0329E0829FC0011124B801805B9C4FC7
:100DE0000E94000DEF14A0F4DF91CF911F910F919D
:100DF000FF90EF900895BE01645F7F4F8FE293E014
:100E0000DF91CF911F910F91FF90EF900C94000D07
:100E10000E94F50EE9CFCF93DF931F921F92CDB7BB
:100E2000DEB71A82198262E070E0CE0101960E945C
:100E30009012F9CFCF93DF931F921F92CDB7DEB7F9
:100E40001A82198261E083E00E94FC0361E083E082
:100E50000E94700361E070E0CE0101960E94901242
:100E6000F1CF0F931F93CF93DF9361E08DE00E944A
:100E7000FC03E091CE05F091CF0582E08083E09104
:100E8000CA05F091CB051082E091CC05F091CD051B
:100E900080E180831092D605E091D205F091D305D0
:100EA00086E08083E091D005F091D105808180615A
:100EB0008083E091D005F091D105808188608083A6
:100EC000E091D005F091D105808180688083E09128
:100ED000D005F091D10580818F7D808383E190E002
:100EE0000E943815EC01892B99F01A8A0E94BD16D0
:100EF0008FE292E09983888384EF91E09D878C87CD
:100F00001F861E8687E096E0998B888B1B861A8643
:100F1000D0930A03C09309030E94A80CAC0161E0BE
:100F2000CE010E941B1207E013E025E040EC50E0E8
:100F30006CE372E08AE197E00E94561505E013E049
:100F400024E040EC50E063E472E08BE097E00E9424
:100F5000561510920C0310920B038BEB96E09093B6
:100F60000C0280930B02809169008F7380648093E0
:100F70006900EB9A60E083E00E94FC0360E084E09B
:100F8000DF91CF911F910F910C94FC031F920F9250
:100F90000FB60F9211242F933F938F939F93AF938C
:100FA000BF938091120390911303A0911403B09109
:100FB00015033091110323E0230F2D3758F50196C7
:100FC000A11DB11D2093110380931203909313036D
:100FD000A0931403B093150380910D0390910E0319
:100FE000A0910F03B09110030196A11DB11D809334
:100FF0000D0390930E03A0930F03B0931003BF91C2
:10100000AF919F918F913F912F910F900FBE0F90B5
:101010001F90189526E8230F0296A11DB11DD2CF6F
:101020001F920F920FB60F9211240BB60F922F93AF
:101030003F934F935F936F937F938F939F93AF9360
:10104000BF93EF93FF93E0910F02F0911002199577
:10105000FF91EF91BF91AF919F918F917F916F9190
:101060005F914F913F912F910F900BBE0F900FBE4C
:101070000F901F9018951F920F920FB60F92112488
:101080000BB60F922F933F934F935F936F937F9382
:101090008F939F93AF93BF93EF93FF93E0910D02D4
:1010A000F0910E021995FF91EF91BF91AF919F9131
:1010B0008F917F916F915F914F913F912F910F9001
:1010C0000BBE0F900FBE0F901F9018951F920F929E
:1010D0000FB60F9211240BB60F922F933F934F939D
:1010E0005F936F937F938F939F93AF93BF93EF9390
:1010F000FF93E0910302F09104021995FF91EF91A3
:10110000BF91AF919F918F917F916F915F914F911F
:101110003F912F910F900BBE0F900FBE0F901F901D
:1011200018951F920F920FB60F9211240BB60F92C3
:101130002F933F934F935F936F937F938F939F93DF
:10114000AF93BF93EF93FF93E0910102F0910202FE
:101150001995FF91EF91BF91AF919F918F917F91E1
:101160006F915F914F913F912F910F900BBE0F9018
:101170000FBE0F901F9018951F920F920FB60F92EF
:1011800011240BB60F922F933F934F935F936F935E
:101190007F938F939F93AF93BF93EF93FF93E091D0
:1011A0000B02F0910C021995FF91EF91BF91AF9155
:1011B0009F918F917F916F915F914F913F912F916F
:1011C0000F900BBE0F900FBE0F901F9018951F929F
:1011D0000F920FB60F9211240BB60F922F933F93DD
:1011E0004F935F936F937F938F939F93AF93BF932F
:1011F000EF93FF93E0910902F0910A021995FF9194
:10120000EF91BF91AF919F918F917F916F915F917E
:101210004F913F912F910F900BBE0F900FBE0F90EB
:101220001F9018951F920F920FB60F9211240BB6B4
:101230000F922F933F934F935F936F937F938F936F
:101240009F93AF93BF93EF93FF93E0910702F091C9
:1012500008021995FF91EF91BF91AF919F918F91E6
:101260007F916F915F914F913F912F910F900BBEA6
:101270000F900FBE0F901F9018951F920F920FB6F0
:101280000F9211240BB60F922F933F934F935F93BE
:101290006F937F938F939F93AF93BF93EF93FF933E
:1012A000E0910502F09106021995FF91EF91BF912F
:1012B000AF919F918F917F916F915F914F913F91EE
:1012C0002F910F900BBE0F900FBE0F901F9018958F
:1012D0001F920F920FB60F9211240BB60F922F93FD
:1012E0003F934F935F936F937F938F939F93AF93AE
:1012F000BF93EF93FF938091B900887F803609F404
:101300004DC008F040C0883209F4A7C028F58031EC
:1013100009F49BC0C8F4882309F4F7C0883009F4A5
:1013200094C0FF91EF91BF91AF919F918F917F9169
:101330006F915F914F913F912F910F900BBE0F9046
:101340000FBE0F901F901895883109F486C0803227
:1013500041F78093DD0214C0803409F49BC040F44F
:101360008033B9F38833E9F68093DD0285ECAEC0B3
:10137000803509F483C0883509F494C0883489F62F
:101380000E943C04CECF883909F48AC038F58837EA
:1013900029F050F4883611F0803719F683E08093F5
:1013A000DE021092DC0255C0883809F479C0803919
:1013B00019F0803809F0B5CF8091DC02803208F056
:1013C0006FC0E091DC0281E08E0F8093DC0280919F
:1013D000BB00F0E0E454FD4F80833BC0803B39F01C
:1013E000D0F4803A09F477C0883A09F09ACF84E0C3
:1013F0008093DE021092BB021092BA02F0E0E0E0AD
:1014000019958091BA0281110FC081E08093BA02D0
:1014100010929A0209C0803C09F4A8CF883C09F4D4
:10142000A5CF883B09F07DCFE091BB0281E08E0F14
:101430008093BB02F0E0E656FD4F80818093BB00B5
:101440009091BB028091BA0229C0809103038093DE
:10145000BB0085EC8093BC0064CF90910203809127
:101460000103981758F5E091020381E08E0F8093F5
:101470000203F0E0EF51FD4F8081E9CFE0910203DC
:1014800081E08E0F809302038091BB00F0E0EF516A
:10149000FD4F808390910203809101039817C8F259
:1014A00085E8D8CFE091020381E08E0F809302039C
:1014B0008091BB00F0E0EF51FD4F80838091E0020E
:1014C00081115ECF81E08093DF0284EA8093BC00CB
:1014D0001092DE0226CF85EC8093BC001092DE02D3
:1014E0008091DC02803230F4E091DC02F0E0E454E0
:1014F000FD4F10826091DC0270E08CEB92E0F0E036
:10150000E0E019951092DC020CCF1092DD0238CF8A
:101510001F920F920FB60F9211240BB60F922F93BA
:101520003F934F935F936F937F938F939F93AF936B
:10153000BF93EF93FF9380918E0290918F02A091C1
:101540009002B0919102892B8A2B8B2BD1F1909133
:101550008D028091000089278093000080918E0287
:1015600090918F02A0919002B091910218161906E5
:101570001A061B069CF480918E0290918F02A09116
:101580009002B09191020197A109B10980938E0256
:1015900090938F02A0939002B0939102FF91EF91EC
:1015A000BF91AF919F918F917F916F915F914F917B
:1015B0003F912F910F900BBE0F900FBE0F901F9079
:1015C000189580910002E8E7F1E0E4919FEF909395
:1015D0000002E230E9F040F4EE2389F0E13091F0CE
:1015E00060E00E947003DACFE43049F110F1E53099
:1015F000B9F7909173009D7F90937300F1CF109293
:101600006E00EECF90916F009D7F90936F00E8CFBA
:10161000909170009D7F9093700091E09093B00046
:101620009091B100987F94609093B1001092B300B4
:10163000D7CF909171009D7F90937100D1CF909101
:1016400072009D7F90937200CBCF1F920F920FB6C6
:101650000F9211240BB60F922F933F934F935F93EA
:101660006F937F938F939F93AF93BF93EF93FF936A
:1016700087EE93E00E943805FF91EF91BF91AF9103
:101680009F918F917F916F915F914F913F912F919A
:101690000F900BBE0F900FBE0F901F9018951F92CA
:1016A0000F920FB60F9211240BB60F922F933F9308
:1016B0004F935F936F937F938F939F93AF93BF935A
:1016C000EF93FF9387EE93E00E94BA04FF91EF91AE
:1016D000BF91AF919F918F917F916F915F914F914A
:1016E0003F912F910F900BBE0F900FBE0F901F9048
:1016F00018951F920F920FB60F9211240BB60F92EE
:101700002F933F934F935F936F937F938F939F9309
:10171000AF93BF93EF93FF9384E894E00E94380562
:10172000FF91EF91BF91AF919F918F917F916F91B9
:101730005F914F913F912F910F900BBE0F900FBE75
:101740000F901F9018951F920F920FB60F921124B1
:101750000BB60F922F933F934F935F936F937F93AB
:101760008F939F93AF93BF93EF93FF9384E894E09D
:101770000E94BA04FF91EF91BF91AF919F918F9119
:101780007F916F915F914F913F912F910F900BBE81
:101790000F900FBE0F901F9018951F920F920FB6CB
:1017A0000F9211240BB60F922F933F934F935F9399
:1017B0006F937F938F939F93AF93BF93EF93FF9319
:1017C00081E295E00E943805FF91EF91BF91AF91C2
:1017D0009F918F917F916F915F914F913F912F9149
:1017E0000F900BBE0F900FBE0F901F9018951F9279
:1017F0000F920FB60F9211240BB60F922F933F93B7
:101800004F935F936F937F938F939F93AF93BF9308
:10181000EF93FF9381E295E00E94BA04FF91EF916C
:10182000BF91AF919F918F917F916F915F914F91F8
:101830003F912F910F900BBE0F900FBE0F901F90F6
:1018400018951F920F920FB60F9211240BB60F929C
:101850002F933F934F935F936F937F938F939F93B8
:10186000AF93BF93EF93FF938EEB95E00E94380503
:10187000FF91EF91BF91AF919F918F917F916F9168
:101880005F914F913F912F910F900BBE0F900FBE24
:101890000F901F9018951F920F920FB60F92112460
:1018A0000BB60F922F933F934F935F936F937F935A
:1018B0008F939F93AF93BF93EF93FF938EEB95E03E
:1018C0000E94BA04FF91EF91BF91AF919F918F91C8
:1018D0007F916F915F914F913F912F910F900BBE30
:1018E0000F900FBE0F901F901895FC01DB010FB6F3
:1018F000F8940F9240914D0350914E032D913C91DD
:1019000011972F3F3207E1F08181928160914F035F
:101910007081761719F048175907C0F4481B590B06
:101920004217530788F4241B350B2D933C93809169
:101930004F03808380914D0390914E039283818366
:1019400080E00F900FBE08951D921C9281E0F9CFA8
:101950000FB6F8940F9280914D0390914E030F9023
:101960000FBE0895809116038F5F8093160308952C
:10197000FC0180915602909157028E179F0761F1EA
:101980000FB6F8940F922285338540911B03509136
:101990001C038091190390911A030F900FBE241716
:1019A0003507E9F028173907D1F083E02D313807E2
:1019B00051F484899589892B91F487A1813079F03C
:1019C00083E090E0089583E02632380759F0232B16
:1019D00049F081E090E0089590E080E0089582E091
:1019E00090E0089584E090E008950FB6F8940F9287
:1019F000FC01928D0F900FBE81E0911180E008955F
:101A0000CF93DF939C01FB01DC011196CD91DC911A
:101A1000D383C2838C819D81958384838C819D81B6
:101A2000DC0113967C936E9312977D836C833187D0
:101A30002087F90180818F5F8083DF91CF910895A6
:101A4000CF93DF93FC01A085B185828193812481AE
:101A50003581EC013D832C83C481D5819B838A83AE
:101A600011968D919C9112978E179F0721F41296D3
:101A7000DC93CE931197118610868C9181508C93B4
:101A80008C91DF91CF9108950F931F93CF93DF93A4
:101A9000DC011596ED91FC91C681D7818E01045F22
:101AA0001F4FC8010E94200D80911603811125C08F
:101AB0000A501109C8010E94200D8E899091AA0335
:101AC000981710F48093AA03B9E08B9FC0011124EA
:101AD000B801805B9C4F0E94000DE0915602F0918E
:101AE00057029E898689891760F481E08093740289
:101AF000DF91CF911F910F910895B8018FE293E08C
:101B0000EACF80E0F5CFEF92FF920F931F93CF9330
:101B1000DF93EC010FB6F8940F921E8D7C0181E1EA
:101B2000E80EF11C01E011165CF48989882341F06C
:101B3000C7010E94440D8111009374021150F3CF2C
:101B40008FEF8E8F0F900FBE0FB6F8940F921D8DF2
:101B50007E0188E0E80EF11C01E011165CF4888536
:101B6000882341F0C7010E94440D81110093740243
:101B70001150F3CF8FEF8D8F0F900FBEDF91CF916C
:101B80001F910F91FF90EF9008950F931F93CF93A4
:101B9000DF938C01FB0180819181D80113968F3FE7
:101BA0009807F1F4E801AF81B88512968D919C9168
:101BB000139793838283EC01FD83EC83B583A48325
:101BC0001396FC93EE93129711870087F80180819A
:101BD0008F5F8083DF91CF911F910F910895D9017D
:101BE00012962D913C911397E901488159818417F0
:101BF0009507A8F7DACFFC0173836283918780870A
:101C00004617570790F0421B530B8485958548175C
:101C10005907C8F4BF016E5F7F4F809177029091A2
:101C200078020E94C50D80E008954217530718F40A
:101C30006217730740F4BF016E5F7F4F8091790296
:101C400090917A02EECF81E00895FF920F931F9357
:101C5000CF93DF93EC01F62E00914D0310914E03CC
:101C6000809156029091570202960E94200DCF3F1C
:101C7000DC0789F4FF2079F06091560270915702D9
:101C80006E5F7F4F8DE193E0DF91CF911F910F91B8
:101C9000FF900C94000DC00FD11FE0915602F091FF
:101CA0005702D383C2836091560270915702C017C6
:101CB000D10768F48091190390911A036E5F7F4FEA
:101CC000DF91CF911F910F91FF900C94C50D8091E2
:101CD0001B0390911C036E5F7F4F0E94C50D809186
:101CE000960290919702C817D90720F4D0939702D3
:101CF000C0939602DF91CF911F910F91FF900895AD
:101D0000FC010396928381832FEF3FEF348323837B
:101D1000968385839087878310820895CF92DF9280
:101D2000FF920F931F93CF93DF93EC01FA8C4C8DAE
:101D3000411143C088819981892B11F080E008C04E
:101D40000C811D810115110569F480E01D821C8242
:101D5000F394FA8EDF91CF911F910F91FF90DF9056
:101D6000CF900895F80182A1815082A3268991A184
:101D7000291759F38111E9CF6801F2E0CF0ED11C88
:101D8000C6010E94200DF80181A1868B2AE030E077
:101D9000281B3109358724879091AA03981710F4DE
:101DA0008093AA03F9E08F9FC0011124B601805BE4
:101DB0009C4F0E94000D81E0C9CF50E08A819B8139
:101DC0000E94811A8C8D2A813B81820F932F911D55
:101DD0009B838A832C813D818217930708F4AECFC1
:101DE000888199819B838A83A9CF0F920FB6F8943B
:101DF0000F920BB60F920CB60F921F9211242F92D6
:101E00003F924F925F926F927F928F929F92AF928A
:101E1000BF92CF92DF92EF92FF920F931F932F9377
:101E20003F934F935F936F937F938F939F93AF9362
:101E3000BF93CF93DF93EF93FF93A0915602B0919E
:101E400057020DB60D920EB60D928091160388239F
:101E500021F081E080937402F8C010927402A09186
:101E60005602B0915702E0915602F09157022D911F
:101E70003C918789908D82179307A8F08091560234
:101E8000909157028091560290915702279A2F9A6B
:101E90002FEF87EA91E6215080409040E1F700C0A3
:101EA00000001F9AF5CF2091AA0389E0422F50E04D
:101EB000849FF001859FF00D1124E05BFC4F908121
:101EC000911102C02150F2CFA181B28112960D90E2
:101ED000BC91A02DB283A183289FC00111248D5AEB
:101EE0009C4FA817B90729F412968D919C91928363
:101EF000818389E0849FF001859FF00D1124E05BD0
:101F0000FC4F0180F281E02D8681978190935702EA
:101F1000809356022093AA03809194029091950297
:101F200001968A3F910528F490939502809394023C
:101F300004C01092950210929402809188009091B2
:101F400089000FB6F8940F9280914D0390914E0343
:101F50000F900FBE8091840090918500E09107035F
:101F6000F09108038091560290915702E817F90703
:101F7000E9F00FB6F8940F928285938540911B0388
:101F800050911C032091190330911A030F900FBE3A
:101F90008417950759F08217930741F08D519340AC
:101FA00029F484899589892B09F487A1E091050397
:101FB000F09106038091560290915702E817F907B5
:101FC000E9F00FB6F8940F928285938540911B0338
:101FD00050911C032091190330911A030F900FBEEA
:101FE0008417950759F08217930741F08D5193405C
:101FF00029F484899589892B09F487A18091560257
:1020000090915702892B09F10FB6F8940F928091A5
:102010000A0090910B0040911B0350911C032091EA
:10202000190330911A030F900FBE8417950769F0BA
:102030008217930751F08D51934039F48091140029
:1020400090911500892B09F487B1A0915602B091A7
:102050005702CD91CDBFDD91DEBFFF91EF91DF91B2
:10206000CF91BF91AF919F918F917F916F915F9130
:102070004F913F912F911F910F91FF90EF90DF9023
:10208000CF90BF90AF909F908F907F906F905F9018
:102090004F903F902F901F900F900CBE0F900BBE53
:1020A0000F900FBE0F9008957F928F929F92AF92E4
:1020B000BF92CF92DF92EF92FF920F931F93CF9335
:1020C000DF930FB6F8940F9280911603815080939E
:1020D000160380911603882389F080E00F900FBECD
:1020E000DF91CF911F910F91FF90EF90DF90CF90F4
:1020F000BF90AF909F908F907F90089580914C03F8
:10210000882359F3D0E0C0E029E0E22EFF24F394C5
:1021100080912F03882351F1E0913403F09135032E
:10212000C681D781CE010C960E94200D8E010E5FD4
:102130001F4FC8010E94200D8E899091AA03981705
:1021400010F48093AA038E9DC0011124B801805B16
:102150009C4F0E94000DE0915602F09157029E891B
:1021600086899817A8F2F0927402D2CFCD2B11F085
:102170000E94EC05E0907202F0907302E114F10409
:1021800009F4AFC089E0A82E77247394CC24CA94B4
:10219000DC2C80911603811192C0C0914D03D09127
:1021A0004E032196D0934E03C0934D032097B9F46C
:1021B00080911B0390911C032091190330911A0305
:1021C00030931C0320931B0390931A0380931903ED
:1021D00080914F038F5F80934F030E94EC058091A5
:1021E000960290919702B12CC817D90708F05BC0EE
:1021F000E0915602F0915702E689AE9EF00111245B
:10220000E05BFC4F8081823010F0BB24B39480915E
:102210007402811103C0BB2009F45AC07092740289
:1022200057C0E0911B03F0911C030580F681E02D5F
:1022300006811781D80112968D919C91C817D907F4
:1022400028F49093970280939602D2CF4801B2E08F
:102250008B0E911CC4010E94200DF8018489958980
:10226000892B21F0C8010C960E94200DD8015696AA
:102270008C919091AA03981710F48093AA038A9DD9
:10228000C0011124B401805B9C4F0E94000DE091BD
:102290005602F0915702D80156969C91868998175C
:1022A00010F0BB24B394E0911B03F0911C038081D8
:1022B0008111B7CFD0929702C092960299CF8091A8
:1022C000720290917302019690937302809372024E
:1022D000B1E0EB1AF10809F05CCF10927302109292
:1022E000720280917402882309F4F7CE0E94F50EE1
:1022F00081E0F4CEAF92BF92CF92DF92EF92FF9245
:102300000F931F93CF93DF9300D01F921F92CDB7EF
:10231000DEB78C017B011D821C8280E0680198E0A1
:10232000C90ED11C0FB6F8940F92F801228D938D2F
:10233000291740F02C813D81232B31F50F900FBEE2
:1023400080E012C0B701C8010E948E0EF801918989
:10235000992321F0C80141960E94440D81110E94E9
:10236000F50E0F900FBE81E00F900F900F900F9021
:102370000F90DF91CF911F910F91FF90EF90DF9021
:10238000CF90BF90AF900895811109C080914F0305
:10239000898380914D0390914E039B838A830F9094
:1023A0000FBE0E94B20C0FB6F8940F92F801858D03
:1023B0008F3F09F4158EF801868D8F3F09F4168E34
:1023C0000F900FBEBE016C5F7F4FCE0101960E9441
:1023D000750C81112AC00FB6F8940F92F801928DF6
:1023E000838D0F900FBE98131AC0AC80BD80609192
:1023F000560270915702645F7F4FC6010E94C50D5F
:1024000061E0C5010E94250EC8010E94830D0E9453
:102410005410811102C00E94F50E81E083CFC801E3
:102420000E94830D0E945410F8CFC8010E94830DB2
:102430000E94541085CFCF93DF9300D01F921F923C
:10244000CDB7DEB79C0180911703909118030097D8
:10245000B9F069835B834A833D832C8320914B03CE
:10246000BE016F5F7F4F2111209116030E947A11E8
:102470000F900F900F900F900F90DF91CF910895D4
:1024800080E0F6CFEF92FF920F931F93CF93DF93ED
:10249000E0917902F0917A028081882371F10580C0
:1024A000F681E02D00811181C681D7817E0182E015
:1024B000E80EF11CC7010E94200DE889F989CE01C0
:1024C00019958A8982FFE4CF8C859D85800F911FA5
:1024D0000817190760F49B838A83D987C887B701D7
:1024E0008091790290917A020E94C50DD1CFA80106
:1024F00060E0CE010E941B12CBCF809177029091B9
:10250000780290937A0280937902F0937802E093B4
:102510007702DF91CF911F910F91FF90EF90089577
:102520000F931F93CF93DF93EC018B010E94B20CAA
:1025300020914D0330914E0348815981CA01800F8B
:10254000911F998388832417350770F484179507A2
:1025500070F00E945410811102C00E94F50EDF91AC
:10256000CF911F910F9108958417950718F02817A0
:10257000390778F760E0821B930B0E94250EE9CFA4
:102580000F920FB6F8940F920BB60F920CB60F92F3
:102590001F9211242F923F924F925F926F927F92DF
:1025A0008F929F92AF92BF92CF92DF92EF92FF9263
:1025B0000F931F932F933F934F935F936F937F934B
:1025C0008F939F93AF93BF93CF93DF93EF93FF933B
:1025D000A0915602B09157020DB60D920EB60D9213
:1025E00013BE809116038111F6C080914D03909126
:1025F0004E03019690934E0380934D03009799F5F7
:1026000020911B0330911C034091190350911A0330
:1026100050931C0340931B0330931A032093190318
:1026200020914F032F5F20934F03E0911B03F09104
:102630001C032081211107C02FEF3FEF3093970239
:102640002093960210C0E0911B03F0911C030580BB
:10265000F681E02D0680F781E02D228133813093D1
:10266000970220939602209196023091970282174A
:10267000930710F420E09BC020E019E0E0911B03D9
:10268000F0911C033081311107C08FEF9FEF9093C1
:102690009702809396028BC0E0911B03F0911C037C
:1026A0000580F681E02D0680F781E02D428153817F
:1026B0008417950728F4509397024093960277C0A9
:1026C000AF014E5F5F4FA285B38564817581E6805F
:1026D000F780EB01FD82EC82C681D7817B836A8320
:1026E00011966D917C9112974617570721F4129617
:1026F000DC93CE931197138612863C9131503C9314
:102700003C91A489B5891097F9F066857785E088B2
:10271000F188EB01FD82EC82C089D1897B836A83D9
:102720001196ED90FC901297BF01645F7F4FE61603
:10273000F70621F41296DC93CE931197158A148A2A
:102740003C9131503C933C91A6893091AA033A17B1
:1027500010F4A093AA031A9FD0011124BD01605B5D
:102760007C4F7B01DB011196CD91DC91D583C48335
:102770006C817D81778366836C817D81DB0113961B
:102780005C934E9312975D834C83F386E286E70158
:1027900038813F5F3883A0915602B0915702468935
:1027A00056963C91431708F469CF21E067CFE0913A
:1027B0005602F0915702E689D9E0ED9FF00111240D
:1027C000E05BFC4F8081823008F021E08091740250
:1027D00081110EC00AC0809172029091730201961D
:1027E000909373028093720203C1222309F400C103
:1027F00080911603882321F081E080937402F8C051
:1028000010927402A0915602B0915702E0915602C4
:10281000F09157022D913C918789908D82179307F3
:10282000A8F08091560290915702809156029091A3
:102830005702279A2F9A2FEF67EA71E621506040DE
:102840007040E1F700C000001F9AF5CF2091AA0365
:1028500089E0422F50E0849FF001859FF00D112404
:10286000E05BFC4F9081911102C02150F2CFA18119
:10287000B28112960D90BC91A02DB283A183289FA6
:10288000C00111248D5A9C4FA817B90729F412963C
:102890008D919C919283818389E0849FF001859F33
:1028A000F00D1124E05BFC4F0180F281E02D868168
:1028B000978190935702809356022093AA038091A8
:1028C00094029091950201968A3F910528F4909385
:1028D00095028093940204C0109295021092940283
:1028E00080918800909189000FB6F8940F928091A2
:1028F0004D0390914E030F900FBE809184009091F4
:102900008500E0910703F0910803809156029091B1
:102910005702E817F907E9F00FB6F8940F9282858D
:10292000938540911B0350911C0320911903309112
:102930001A030F900FBE8417950759F0821793075B
:1029400041F08D51934029F484899589892B09F4AC
:1029500087A1E0910503F0910603809156029091C2
:102960005702E817F907E9F00FB6F8940F9282853D
:10297000938540911B0350911C03209119033091C2
:102980001A030F900FBE8417950759F0821793070B
:1029900041F08D51934029F484899589892B09F45C
:1029A00087A18091560290915702892B09F10FB6A9
:1029B000F8940F9280910A0090910B0040911B03B4
:1029C00050911C032091190330911A030F900FBEF0
:1029D0008417950769F08217930751F08D51934042
:1029E00039F48091140090911500892B09F487B176
:1029F000A0915602B0915702CD91CDBFDD91DEBFBF
:102A0000FF91EF91DF91CF91BF91AF919F918F9106
:102A10007F916F915F914F913F912F911F910F91F6
:102A2000FF90EF90DF90CF90BF90AF909F908F90EE
:102A30007F906F905F904F903F902F901F900F90DE
:102A40000CBE0F900BBE0F900FBE0F900895CF934A
:102A5000DF93009751F0EC010E94B20CCE010E946E
:102A6000F819DF91CF910C945410DF91CF91089514
:102A7000CF93DF93EC010E94B20CCE010E945C194F
:102A8000EC010E945410209769F4279A2F9A2FEF97
:102A900080E792E0215080409040E1F700C00000C4
:102AA0001F9AF5CFCE01DF91CF9108957F928F923B
:102AB0009F92AF92BF92CF92DF92EF92FF920F93CD
:102AC0001F93CF93DF93982EA92E762E872E7A010F
:102AD000B22ECA010E9438156C01892B09F42CC151
:102AE00088E290E00E943815EC01892B09F421C19D
:102AF000D88ECF8AA70165EA70E0C6010E948A1AC3
:102B000021E0E21AF108EF89F88DEE0DFF1D672D27
:102B1000782DCE0149969B01285F3F4FDB014D91F7
:102B2000BD01DC014D93CD01AB0141505109DA01EA
:102B30004C91442319F06217730781F718A2BE8ADB
:102B4000B9A21AA21B861A861D8A1C8AD987C88731
:102B50008AE090E08B1991099D878C87DB8BCA8B6B
:102B60001BA21CA21DA21EA21FA291E19083DF0145
:102B7000119782E28C93119723E32C9311979C92E7
:102B80001197AC9211971C9211971C92119720E803
:102B90002C9311971C9211971C9211971C921197CC
:102BA00022E02C93119723E02C93119724E02C938F
:102BB000119725E02C93119726E02C93119727E08D
:102BC0002C93119728E02C93119729E02C931197BF
:102BD00020E12C9311979C93119792E19C9311976C
:102BE00093E19C93119794E19C93119795E19C93A9
:102BF000119796E19C93119797E19C93119798E117
:102C00009C93119799E19C93119790E29C93119753
:102C100091E29C9311978C93119783E28C93119777
:102C20001C9211971C92119786E28C93119787E260
:102C30008C93119788E28C93119789E28C9311976A
:102C400080E38C93119781E38C93B997F983E883A0
:102C5000F801D183C0830FB6F8940F9280914C0392
:102C60008F5F80934C038091560290915702892B7D
:102C700009F071C0D0935702C093560280914C0363
:102C8000813071F500E513E08AEAE82E83E0F82E42
:102C9000C8010E94800E075F1F4FE016F106C1F7C2
:102CA00081E493E00E94800E88E393E00E94800E0E
:102CB0008FE293E00E94800E86E293E00E94800EF5
:102CC0008DE193E00E94800E81E493E090931C03D9
:102CD00080931B0388E393E090931A038093190376
:102CE00080914A038F5F80934A038E899091AA0353
:102CF000981710F48093AA03F9E08F9FC001112464
:102D0000BE016E5F7F4F805B9C4F0E94000D0F9055
:102D10000FBE80914B03882351F0E0915602F09151
:102D2000570296898E89981710F40E94F50E81E05B
:102D300004C0C6010E9427158FEFDF91CF911F912C
:102D40000F91FF90EF90DF90CF90BF90AF909F904A
:102D50008F907F90089580914B038111C1CFE091B6
:102D60005602F091570296898E89891708F4B8CFD8
:102D7000D0935702C0935602B3CFCF93DF930FB6D1
:102D8000F8940F928091170390911803892B09F002
:102D90004FC084E892E00E94800E8BE792E00E9490
:102DA000800E84E892E090937A02809379028BE718
:102DB00092E0909378028093770281E590E00E9400
:102DC0003815EC01009781F14F96998388838AE04A
:102DD0008B8F85E08C8F0FB6F8940F928881998144
:102DE0002B8D4C8DBC01249F600D711D11247D83A2
:102DF0006C831A8E9B838A832150330B429FB001D0
:102E0000439F700D1124860F971F9F838E838FEF32
:102E10008D8F8E8FCE0108960E94800ECE01419636
:102E20000E94800E0F900FBED0931803C09317031B
:102E30000F900FBEDF91CF9108950E94C012189598
:102E4000EBEAF3E08BE192E09183808312821382BC
:102E500014821582E1EBF3E0918380831282138266
:102E600014821582E7EBF3E0918380831282138250
:102E700014821582EDEBF3E091838083128213823A
:102E800014821582E3ECF3E0918380831282138233
:102E900014821582E9ECF3E091838083128213821D
:102EA00014821582E5EDF3E0918380831282138210
:102EB00014821582EFECF3E09183808312821382F7
:102EC00014821582EBEDF3E09183808312821382EA
:102ED00014821582E1EEF3E09183808312821382E3
:102EE00014821582E7EEF3E01382128248EE53E07B
:102EF00060E070E0448355836683778381E292E0EB
:102F00009183808325E331E03587248724E331E012
:102F10003787268720E331E0318B208B21E331E0B6
:102F2000338B228B22E331E0358B248B26E331E097
:102F3000378B268B118E128E138E148EE4E8F4E0FC
:102F400013821282448355836683778391838083BF
:102F500025ED30E03587248724ED30E0378726875C
:102F600020ED30E0318B208B21ED30E0338B228B54
:102F700022ED30E0358B248B26ED30E0378B268B2D
:102F8000118E128E138E148EE1E2F5E013821282FE
:102F90004483558366837783918380832DEC30E06F
:102FA000358724872CEC30E03787268728EC30E003
:102FB000318B208B29EC30E0338B228B2AEC30E0F4
:102FC000358B248B2EEC30E0378B268B118E128EB6
:102FD000138E148EEEEBF5E0138212824483558338
:102FE000668377839183808385EC90E095878487DF
:102FF00084EC90E09787868780EC90E0918B808BC3
:1030000081EC90E0938B828B82EC90E0958B848BAB
:1030100086EC90E0978B868B118E128E138E148E19
:103020000895789484B5826084BD84B5816084BD40
:1030300085B5826085BD85B5816085BD80916E0056
:10304000816080936E001092810080918100826087
:1030500080938100809181008160809381008091C4
:1030600080008160809380008091B10084608093B3
:10307000B1008091B00081608093B0008091910098
:103080008260809391008091910081608093910093
:10309000809190008160809390008091A100826077
:1030A0008093A1008091A10081608093A100809114
:1030B000A00081608093A0008091210182608093B4
:1030C0002101809121018160809321018091200163
:1030D00081608093200180917A00846080937A00DF
:1030E00080917A00826080937A0080917A0081607A
:1030F00080937A0080917A00806880937A001092A1
:10310000C1000E94310708E912E020E040EC50E0E5
:1031100069E472E08EE093E00E945615813009F078
:103120009CC00E94BD168091170390911803892BB3
:1031300009F493C002E912E023E045E550E06EE4B3
:1031400072E080E491E00E945615813009F085C05C
:10315000F8942FEF3FEF30939702209396028093DD
:103160004B0310924E0310924D0380919402909164
:103170009502019690939502809394028A3F91055F
:1031800020F0109295021092940280918800909104
:1031900089000E94A80C8091840090918500809104
:1031A0000703909108030E94B80C80910503909149
:1031B00006030E94B80C90E080E00E94B80CF894DE
:1031C000109280001092810010928500109284006D
:1031D0008FE19EE490938900809388008091810024
:1031E000886080938100809181008260809381005B
:1031F00080916F00826080936F007894A091560256
:10320000B0915702CD91CDBFDD91DEBFFF91EF911F
:10321000DF91CF91BF91AF919F918F917F916F91EE
:103220005F914F913F912F911F910F91FF90EF90E0
:10323000DF90CF90BF90AF909F908F907F906F90D6
:103240005F904F903F902F901F900F900CBE0F906B
:103250000BBE0F900FBE0F9008950E9431070E9481
:10326000C705FDCFA1E21A2EAA1BBB1BFD010DC095
:10327000AA1FBB1FEE1FFF1FA217B307E407F50726
:1032800020F0A21BB30BE40BF50B661F771F881F02
:10329000991F1A9469F760957095809590959B0198
:1032A000AC01BD01CF010895EE0FFF1F881F8BBF3A
:1032B0000790F691E02D19940F931F93CF93DF930E
:1032C0008230910510F482E090E0E0915D06F0918B
:1032D0005E0630E020E0B0E0A0E0309799F42115E0
:1032E000310509F44AC0281B390B24303105D8F5C3
:1032F0008A819B816115710589F1FB01938382832A
:10330000FE0111C040815181028113814817590784
:10331000E0F04817590799F4109761F012960C9352
:10332000129713961C933296CF01DF91CF911F9184
:103330000F91089500935D0610935E06F4CF21155A
:10334000310551F04217530738F0A901DB019A010A
:10335000BD01DF01F801C1CFEF01F9CF90935E0607
:1033600080935D06CDCFFE01E20FF31F8193919311
:103370002250310939832883D7CF20915B063091C1
:103380005C06232B41F420911302309114023093F8
:103390005C0620935B0620911102309112022115E8
:1033A000310541F42DB73EB74091150250911602F8
:1033B000241B350BE0915B06F0915C06E217F307E6
:1033C000A0F42E1B3F0B2817390778F0AC014E5F95
:1033D0005F4F2417350748F04E0F5F1F50935C0670
:1033E00040935B06819391939FCFF0E0E0E09CCF08
:1033F000CF93DF930097E9F0FC013297138212829A
:10340000A0915D06B0915E06ED0130E020E01097DE
:10341000A1F420813181820F931F20915B063091AE
:103420005C062817390709F061C0F0935C06E09349
:103430005B06DF91CF910895EA01CE17DF07E8F52B
:103440004A815B819E0141155105B1F7E901FB837A
:10345000EA8349915991C40FD51FEC17FD0761F418
:10346000808191810296840F951FE9019983888359
:10347000828193819B838A83F0E0E0E012968D91B4
:103480009C9113970097B9F52D913C911197CD011F
:103490000296820F931F20915B0630915C062817DD
:1034A000390739F6309751F510925E0610925D0695
:1034B000B0935C06A0935B06BCCFD383C2834081EC
:1034C0005181840F951FC817D90761F44E5F5F4F74
:1034D00088819981480F591F518340838A819B813C
:1034E000938382832115310509F0B0CFF0935E06F6
:1034F000E0935D069ECFFD01DC01C0CF13821282F6
:10350000D7CFFB01DC0102C001900D924150504029
:10351000D8F70895DC0101C06D9341505040E0F7A9
:063520000895F894FFCFAE
:10352600FF2D042D042D042D042D042D042D042D12
:103536000400005F06800000000000710600000025
:10354600005A058A04D304A7050405E204F6044FCD
:103556006E6553686F7454696D65720020546173AB
:103566006B31005461736B320049444C4500546D15
:0635760072205376630091
:00000001FF
